{
  "contractName": "BountyContract",
  "abi": [
    {
      "constant": false,
      "inputs": [],
      "name": "toggleContractActive",
      "outputs": [],
      "payable": false,
      "stateMutability": "nonpayable",
      "type": "function"
    },
    {
      "constant": true,
      "inputs": [],
      "name": "isStopped",
      "outputs": [
        {
          "name": "",
          "type": "bool"
        }
      ],
      "payable": false,
      "stateMutability": "view",
      "type": "function"
    },
    {
      "constant": false,
      "inputs": [],
      "name": "withdrawPayments",
      "outputs": [],
      "payable": false,
      "stateMutability": "nonpayable",
      "type": "function"
    },
    {
      "constant": true,
      "inputs": [
        {
          "name": "_dest",
          "type": "address"
        }
      ],
      "name": "payments",
      "outputs": [
        {
          "name": "",
          "type": "uint256"
        }
      ],
      "payable": false,
      "stateMutability": "view",
      "type": "function"
    },
    {
      "constant": true,
      "inputs": [],
      "name": "isUserAdmin",
      "outputs": [
        {
          "name": "",
          "type": "bool"
        }
      ],
      "payable": false,
      "stateMutability": "view",
      "type": "function"
    },
    {
      "inputs": [],
      "payable": false,
      "stateMutability": "nonpayable",
      "type": "constructor"
    },
    {
      "constant": false,
      "inputs": [
        {
          "name": "desc",
          "type": "string"
        },
        {
          "name": "bountyAmt",
          "type": "uint256"
        }
      ],
      "name": "createBounty",
      "outputs": [
        {
          "name": "",
          "type": "uint32"
        }
      ],
      "payable": false,
      "stateMutability": "nonpayable",
      "type": "function"
    },
    {
      "constant": true,
      "inputs": [
        {
          "name": "bountyId",
          "type": "uint32"
        }
      ],
      "name": "getBounty",
      "outputs": [
        {
          "name": "",
          "type": "address"
        },
        {
          "name": "",
          "type": "string"
        },
        {
          "name": "",
          "type": "uint256"
        },
        {
          "name": "",
          "type": "uint32"
        }
      ],
      "payable": false,
      "stateMutability": "view",
      "type": "function"
    },
    {
      "constant": true,
      "inputs": [],
      "name": "returnBountiesCount",
      "outputs": [
        {
          "name": "",
          "type": "uint32"
        }
      ],
      "payable": false,
      "stateMutability": "view",
      "type": "function"
    },
    {
      "constant": false,
      "inputs": [
        {
          "name": "bountyId",
          "type": "uint32"
        },
        {
          "name": "answer",
          "type": "string"
        }
      ],
      "name": "createSolution",
      "outputs": [
        {
          "name": "",
          "type": "uint32"
        }
      ],
      "payable": false,
      "stateMutability": "nonpayable",
      "type": "function"
    },
    {
      "constant": true,
      "inputs": [
        {
          "name": "bountyId",
          "type": "uint32"
        },
        {
          "name": "solutionId",
          "type": "uint32"
        }
      ],
      "name": "getSolution",
      "outputs": [
        {
          "name": "",
          "type": "address"
        },
        {
          "name": "",
          "type": "string"
        },
        {
          "name": "",
          "type": "bool"
        }
      ],
      "payable": false,
      "stateMutability": "view",
      "type": "function"
    },
    {
      "constant": true,
      "inputs": [
        {
          "name": "bountyId",
          "type": "uint32"
        }
      ],
      "name": "returnSolutionsCount",
      "outputs": [
        {
          "name": "",
          "type": "uint32"
        }
      ],
      "payable": false,
      "stateMutability": "view",
      "type": "function"
    },
    {
      "constant": true,
      "inputs": [
        {
          "name": "bountyId",
          "type": "uint32"
        },
        {
          "name": "solutionId",
          "type": "uint32"
        }
      ],
      "name": "getSolutionToBeAwarded",
      "outputs": [
        {
          "name": "",
          "type": "address"
        },
        {
          "name": "",
          "type": "uint256"
        }
      ],
      "payable": false,
      "stateMutability": "view",
      "type": "function"
    },
    {
      "constant": false,
      "inputs": [
        {
          "name": "bountyId",
          "type": "uint32"
        },
        {
          "name": "solutionId",
          "type": "uint32"
        }
      ],
      "name": "untrustedAcceptSolution",
      "outputs": [],
      "payable": true,
      "stateMutability": "payable",
      "type": "function"
    },
    {
      "constant": false,
      "inputs": [
        {
          "name": "dest",
          "type": "address"
        },
        {
          "name": "amount",
          "type": "uint256"
        }
      ],
      "name": "untrustedCreditTransfer",
      "outputs": [],
      "payable": true,
      "stateMutability": "payable",
      "type": "function"
    },
    {
      "constant": false,
      "inputs": [],
      "name": "untrustedWithdrawBountyReward",
      "outputs": [],
      "payable": false,
      "stateMutability": "nonpayable",
      "type": "function"
    },
    {
      "constant": true,
      "inputs": [
        {
          "name": "hunterAddress",
          "type": "address"
        }
      ],
      "name": "untrustedCheckBountyWinnings",
      "outputs": [
        {
          "name": "",
          "type": "uint256"
        }
      ],
      "payable": false,
      "stateMutability": "view",
      "type": "function"
    }
  ],
  "bytecode": "0x608060405260008060146101000a81548160ff02191690831515021790555034801561002a57600080fd5b50610033610116565b604051809103906000f08015801561004f573d6000803e3d6000fd5b506000806101000a81548173ffffffffffffffffffffffffffffffffffffffff021916908373ffffffffffffffffffffffffffffffffffffffff16021790555033600160006101000a81548173ffffffffffffffffffffffffffffffffffffffff021916908373ffffffffffffffffffffffffffffffffffffffff16021790555033600260006101000a81548173ffffffffffffffffffffffffffffffffffffffff021916908373ffffffffffffffffffffffffffffffffffffffff160217905550610127565b604051610851806200207183390190565b611f3a80620001376000396000f3006080604052600436106100e6576000357c0100000000000000000000000000000000000000000000000000000000900463ffffffff1680631385d24c146100eb5780633d69583b146101025780633f683b6a146101fb5780636103d70b1461022a57806374e675d6146102415780638ce6a4e21461028157806390aac3be146102985780639d8b8479146102ce5780639ebb910414610305578063a96ee86b1461038f578063b83a3bc1146103e6578063bf453a241461044b578063e2982c21146104b6578063f0b88f101461050d578063f6837b4514610560578063fba0a29f1461065a575b600080fd5b3480156100f757600080fd5b50610100610689565b005b34801561010e57600080fd5b50610133600480360381019080803563ffffffff169060200190929190505050610731565b604051808573ffffffffffffffffffffffffffffffffffffffff1673ffffffffffffffffffffffffffffffffffffffff168152602001806020018481526020018363ffffffff1663ffffffff168152602001828103825285818151815260200191508051906020019080838360005b838110156101bd5780820151818401526020810190506101a2565b50505050905090810190601f1680156101ea5780820380516001836020036101000a031916815260200191505b509550505050505060405180910390f35b34801561020757600080fd5b5061021061093d565b604051808215151515815260200191505060405180910390f35b34801561023657600080fd5b5061023f610953565b005b61027f600480360381019080803573ffffffffffffffffffffffffffffffffffffffff16906020019092919080359060200190929190505050610a2f565b005b34801561028d57600080fd5b50610296610acf565b005b6102cc600480360381019080803563ffffffff169060200190929190803563ffffffff169060200190929190505050610b5c565b005b3480156102da57600080fd5b506102e361105d565b604051808263ffffffff1663ffffffff16815260200191505060405180910390f35b34801561031157600080fd5b50610346600480360381019080803563ffffffff169060200190929190803563ffffffff169060200190929190505050611077565b604051808373ffffffffffffffffffffffffffffffffffffffff1673ffffffffffffffffffffffffffffffffffffffff1681526020018281526020019250505060405180910390f35b34801561039b57600080fd5b506103d0600480360381019080803573ffffffffffffffffffffffffffffffffffffffff169060200190929190505050611255565b6040518082815260200191505060405180910390f35b3480156103f257600080fd5b5061042960048036038101908080359060200190820180359060200191909192939192939080359060200190929190505050611267565b604051808263ffffffff1663ffffffff16815260200191505060405180910390f35b34801561045757600080fd5b50610494600480360381019080803563ffffffff1690602001909291908035906020019082018035906020019190919293919293905050506115a7565b604051808263ffffffff1663ffffffff16815260200191505060405180910390f35b3480156104c257600080fd5b506104f7600480360381019080803573ffffffffffffffffffffffffffffffffffffffff169060200190929190505050611917565b6040518082815260200191505060405180910390f35b34801561051957600080fd5b5061053e600480360381019080803563ffffffff169060200190929190505050611a17565b604051808263ffffffff1663ffffffff16815260200191505060405180910390f35b34801561056c57600080fd5b506105a1600480360381019080803563ffffffff169060200190929190803563ffffffff169060200190929190505050611ae7565b604051808473ffffffffffffffffffffffffffffffffffffffff1673ffffffffffffffffffffffffffffffffffffffff1681526020018060200183151515158152602001828103825284818151815260200191508051906020019080838360005b8381101561061d578082015181840152602081019050610602565b50505050905090810190601f16801561064a5780820380516001836020036101000a031916815260200191505b5094505050505060405180910390f35b34801561066657600080fd5b5061066f611d38565b604051808215151515815260200191505060405180910390f35b610691611d38565b1515610705576040517f08c379a00000000000000000000000000000000000000000000000000000000081526004018080602001828103825260138152602001807f53656e646572206973206e6f742041646d696e0000000000000000000000000081525060200191505060405180910390fd5b600060149054906101000a900460ff1615600060146101000a81548160ff021916908315150217905550565b6000606060008084600460009054906101000a900463ffffffff1663ffffffff168163ffffffff161015156107ce576040517f08c379a00000000000000000000000000000000000000000000000000000000081526004018080602001828103825260198152602001807f417272617920696e646578206f7574206f6620626f756e64730000000000000081525060200191505060405180910390fd5b600360008763ffffffff1663ffffffff16815260200190815260200160002060000160049054906101000a900473ffffffffffffffffffffffffffffffffffffffff16600360008863ffffffff1663ffffffff168152602001908152602001600020600101600360008963ffffffff1663ffffffff16815260200190815260200160002060020154600360008a63ffffffff1663ffffffff16815260200190815260200160002060030160009054906101000a900460ff16600181111561089157fe5b828054600181600116156101000203166002900480601f0160208091040260200160405190810160405280929190818152602001828054600181600116156101000203166002900480156109265780601f106108fb57610100808354040283529160200191610926565b820191906000526020600020905b81548152906001019060200180831161090957829003601f168201915b505050505092509450945094509450509193509193565b60008060149054906101000a900460ff16905090565b60003390506000809054906101000a900473ffffffffffffffffffffffffffffffffffffffff1673ffffffffffffffffffffffffffffffffffffffff166351cff8d9826040518263ffffffff167c0100000000000000000000000000000000000000000000000000000000028152600401808273ffffffffffffffffffffffffffffffffffffffff1673ffffffffffffffffffffffffffffffffffffffff168152602001915050600060405180830381600087803b158015610a1457600080fd5b505af1158015610a28573d6000803e3d6000fd5b5050505050565b600060149054906101000a900460ff161515610acb578060008114151515610abf576040517f08c379a000000000000000000000000000000000000000000000000000000000815260040180806020018281038252600e8152602001807f416d6f756e74206973207a65726f00000000000000000000000000000000000081525060200191505060405180910390fd5b610ac98383611d90565b505b5050565b336000610adb82611255565b14151515610b51576040517f08c379a00000000000000000000000000000000000000000000000000000000081526004018080602001828103825260138152602001807f4e6f7468696e6720746f2077697468647261770000000000000000000000000081525060200191505060405180910390fd5b610b59610953565b50565b81600460009054906101000a900463ffffffff1663ffffffff168163ffffffff16101515610bf2576040517f08c379a00000000000000000000000000000000000000000000000000000000081526004018080602001828103825260198152602001807f417272617920696e646578206f7574206f6620626f756e64730000000000000081525060200191505060405180910390fd5b8282600660008363ffffffff1663ffffffff16815260200190815260200160002060009054906101000a900463ffffffff1663ffffffff168163ffffffff16101515610ca6576040517f08c379a00000000000000000000000000000000000000000000000000000000081526004018080602001828103825260198152602001807f417272617920696e646578206f7574206f6620626f756e64730000000000000081525060200191505060405180910390fd5b600060149054906101000a900460ff161515611056578460006001811115610cca57fe5b600360008363ffffffff1663ffffffff16815260200190815260200160002060030160009054906101000a900460ff166001811115610d0557fe5b141515610d7a576040517f08c379a00000000000000000000000000000000000000000000000000000000081526004018080602001828103825260108152602001807f426f756e747920697320636c6f7365640000000000000000000000000000000081525060200191505060405180910390fd5b85600360008263ffffffff1663ffffffff16815260200190815260200160002060000160049054906101000a900473ffffffffffffffffffffffffffffffffffffffff1673ffffffffffffffffffffffffffffffffffffffff163373ffffffffffffffffffffffffffffffffffffffff16141515610e60576040517f08c379a000000000000000000000000000000000000000000000000000000000815260040180806020018281038252601c8152602001807f53656e646572206973206e6f7420426f756e74792063726561746f720000000081525060200191505060405180910390fd5b868660001515600560008463ffffffff1663ffffffff16815260200190815260200160002060008363ffffffff1663ffffffff16815260200190815260200160002060020160009054906101000a900460ff161515141515610f2a576040517f08c379a000000000000000000000000000000000000000000000000000000000815260040180806020018281038252601c8152602001807f536f6c7574696f6e20697320616c72656164792061636365707465640000000081525060200191505060405180910390fd5b6001600360008b63ffffffff1663ffffffff16815260200190815260200160002060030160006101000a81548160ff02191690836001811115610f6957fe5b02179055506001600560008b63ffffffff1663ffffffff16815260200190815260200160002060008a63ffffffff1663ffffffff16815260200190815260200160002060020160006101000a81548160ff021916908315150217905550611051600560008b63ffffffff1663ffffffff16815260200190815260200160002060008a63ffffffff1663ffffffff16815260200190815260200160002060000160049054906101000a900473ffffffffffffffffffffffffffffffffffffffff16600360008c63ffffffff1663ffffffff16815260200190815260200160002060020154610a2f565b505050505b5050505050565b6000600460009054906101000a900463ffffffff16905090565b60008083600460009054906101000a900463ffffffff1663ffffffff168163ffffffff16101515611110576040517f08c379a00000000000000000000000000000000000000000000000000000000081526004018080602001828103825260198152602001807f417272617920696e646578206f7574206f6620626f756e64730000000000000081525060200191505060405180910390fd5b8484600660008363ffffffff1663ffffffff16815260200190815260200160002060009054906101000a900463ffffffff1663ffffffff168163ffffffff161015156111c4576040517f08c379a00000000000000000000000000000000000000000000000000000000081526004018080602001828103825260198152602001807f417272617920696e646578206f7574206f6620626f756e64730000000000000081525060200191505060405180910390fd5b600560008863ffffffff1663ffffffff16815260200190815260200160002060008763ffffffff1663ffffffff16815260200190815260200160002060000160049054906101000a900473ffffffffffffffffffffffffffffffffffffffff16600360008963ffffffff1663ffffffff16815260200190815260200160002060020154945094505050509250929050565b600061126082611917565b9050919050565b60008060149054906101000a900460ff1615156115a05781600081141515156112f8576040517f08c379a000000000000000000000000000000000000000000000000000000000815260040180806020018281038252600e8152602001807f416d6f756e74206973207a65726f00000000000000000000000000000000000081525060200191505060405180910390fd5b600460009054906101000a900463ffffffff1663ffffffff166001600460009054906101000a900463ffffffff160163ffffffff161115156113c8576040517f08c379a000000000000000000000000000000000000000000000000000000000815260040180806020018281038252602f8152602001807f4e6f2e206f6620626f756e74696573206973206d6f7265207468616e2075696e81526020017f7433322063616e20737570706f7274000000000000000000000000000000000081525060400191505060405180910390fd5b60a060405190810160405280600460009054906101000a900463ffffffff1663ffffffff1681526020013373ffffffffffffffffffffffffffffffffffffffff16815260200186868080601f01602080910402602001604051908101604052809392919081815260200183838082843782019150505050505081526020018481526020016000600181111561145957fe5b81525060036000600460009054906101000a900463ffffffff1663ffffffff1663ffffffff16815260200190815260200160002060008201518160000160006101000a81548163ffffffff021916908363ffffffff16021790555060208201518160000160046101000a81548173ffffffffffffffffffffffffffffffffffffffff021916908373ffffffffffffffffffffffffffffffffffffffff1602179055506040820151816001019080519060200190611517929190611e69565b506060820151816002015560808201518160030160006101000a81548160ff0219169083600181111561154657fe5b02179055509050506004600081819054906101000a900463ffffffff168092919060010191906101000a81548163ffffffff021916908363ffffffff16021790555050600460009054906101000a900463ffffffff169150505b9392505050565b60008060149054906101000a900460ff1615156119105783600660008263ffffffff1663ffffffff16815260200190815260200160002060009054906101000a900463ffffffff1663ffffffff166001600660008463ffffffff1663ffffffff16815260200190815260200160002060009054906101000a900463ffffffff160163ffffffff161115156116c9576040517f08c379a00000000000000000000000000000000000000000000000000000000081526004018080602001828103825260308152602001807f4e6f2e206f6620736f6c7574696f6e73206973206d6f7265207468616e20756981526020017f6e7433322063616e20737570706f72740000000000000000000000000000000081525060400191505060405180910390fd5b608060405190810160405280600660008863ffffffff1663ffffffff16815260200190815260200160002060009054906101000a900463ffffffff1663ffffffff1681526020013373ffffffffffffffffffffffffffffffffffffffff16815260200185858080601f016020809104026020016040519081016040528093929190818152602001838380828437820191505050505050815260200160001515815250600560008763ffffffff1663ffffffff1681526020019081526020016000206000600660008963ffffffff1663ffffffff16815260200190815260200160002060009054906101000a900463ffffffff1663ffffffff1663ffffffff16815260200190815260200160002060008201518160000160006101000a81548163ffffffff021916908363ffffffff16021790555060208201518160000160046101000a81548173ffffffffffffffffffffffffffffffffffffffff021916908373ffffffffffffffffffffffffffffffffffffffff1602179055506040820151816001019080519060200190611860929190611e69565b5060608201518160020160006101000a81548160ff021916908315150217905550905050600660008663ffffffff1663ffffffff168152602001908152602001600020600081819054906101000a900463ffffffff168092919060010191906101000a81548163ffffffff021916908363ffffffff16021790555050600660008663ffffffff1663ffffffff16815260200190815260200160002060009054906101000a900463ffffffff169150505b9392505050565b60008060009054906101000a900473ffffffffffffffffffffffffffffffffffffffff1673ffffffffffffffffffffffffffffffffffffffff1663e3a9db1a836040518263ffffffff167c0100000000000000000000000000000000000000000000000000000000028152600401808273ffffffffffffffffffffffffffffffffffffffff1673ffffffffffffffffffffffffffffffffffffffff168152602001915050602060405180830381600087803b1580156119d557600080fd5b505af11580156119e9573d6000803e3d6000fd5b505050506040513d60208110156119ff57600080fd5b81019080805190602001909291905050509050919050565b600081600460009054906101000a900463ffffffff1663ffffffff168163ffffffff16101515611aaf576040517f08c379a00000000000000000000000000000000000000000000000000000000081526004018080602001828103825260198152602001807f417272617920696e646578206f7574206f6620626f756e64730000000000000081525060200191505060405180910390fd5b600660008463ffffffff1663ffffffff16815260200190815260200160002060009054906101000a900463ffffffff16915050919050565b6000606060008484600660008363ffffffff1663ffffffff16815260200190815260200160002060009054906101000a900463ffffffff1663ffffffff168163ffffffff16101515611ba1576040517f08c379a00000000000000000000000000000000000000000000000000000000081526004018080602001828103825260198152602001807f417272617920696e646578206f7574206f6620626f756e64730000000000000081525060200191505060405180910390fd5b600560008863ffffffff1663ffffffff16815260200190815260200160002060008763ffffffff1663ffffffff16815260200190815260200160002060000160049054906101000a900473ffffffffffffffffffffffffffffffffffffffff16600560008963ffffffff1663ffffffff16815260200190815260200160002060008863ffffffff1663ffffffff168152602001908152602001600020600101600560008a63ffffffff1663ffffffff16815260200190815260200160002060008963ffffffff1663ffffffff16815260200190815260200160002060020160009054906101000a900460ff16818054600181600116156101000203166002900480601f016020809104026020016040519081016040528092919081815260200182805460018160011615610100020316600290048015611d225780601f10611cf757610100808354040283529160200191611d22565b820191906000526020600020905b815481529060010190602001808311611d0557829003601f168201915b5050505050915094509450945050509250925092565b6000600160009054906101000a900473ffffffffffffffffffffffffffffffffffffffff1673ffffffffffffffffffffffffffffffffffffffff163373ffffffffffffffffffffffffffffffffffffffff1614905090565b6000809054906101000a900473ffffffffffffffffffffffffffffffffffffffff1673ffffffffffffffffffffffffffffffffffffffff1663f340fa0182846040518363ffffffff167c0100000000000000000000000000000000000000000000000000000000028152600401808273ffffffffffffffffffffffffffffffffffffffff1673ffffffffffffffffffffffffffffffffffffffff1681526020019150506000604051808303818588803b158015611e4c57600080fd5b505af1158015611e60573d6000803e3d6000fd5b50505050505050565b828054600181600116156101000203166002900490600052602060002090601f016020900481019282601f10611eaa57805160ff1916838001178555611ed8565b82800160010185558215611ed8579182015b82811115611ed7578251825591602001919060010190611ebc565b5b509050611ee59190611ee9565b5090565b611f0b91905b80821115611f07576000816000905550600101611eef565b5090565b905600a165627a7a72305820409e0adb05064bf3c1a5e2b0f9f485fcd205b71a2ceedb7b09990aaf13a2327a00296080604052336000806101000a81548173ffffffffffffffffffffffffffffffffffffffff021916908373ffffffffffffffffffffffffffffffffffffffff1602179055506107fe806100536000396000f300608060405260043610610078576000357c0100000000000000000000000000000000000000000000000000000000900463ffffffff16806351cff8d91461007d578063715018a6146100c05780638da5cb5b146100d7578063e3a9db1a1461012e578063f2fde38b14610185578063f340fa01146101c8575b600080fd5b34801561008957600080fd5b506100be600480360381019080803573ffffffffffffffffffffffffffffffffffffffff1690602001909291905050506101fe565b005b3480156100cc57600080fd5b506100d561039e565b005b3480156100e357600080fd5b506100ec6104a0565b604051808273ffffffffffffffffffffffffffffffffffffffff1673ffffffffffffffffffffffffffffffffffffffff16815260200191505060405180910390f35b34801561013a57600080fd5b5061016f600480360381019080803573ffffffffffffffffffffffffffffffffffffffff1690602001909291905050506104c5565b6040518082815260200191505060405180910390f35b34801561019157600080fd5b506101c6600480360381019080803573ffffffffffffffffffffffffffffffffffffffff16906020019092919050505061050e565b005b6101fc600480360381019080803573ffffffffffffffffffffffffffffffffffffffff169060200190929190505050610575565b005b60008060009054906101000a900473ffffffffffffffffffffffffffffffffffffffff1673ffffffffffffffffffffffffffffffffffffffff163373ffffffffffffffffffffffffffffffffffffffff1614151561025b57600080fd5b600160008373ffffffffffffffffffffffffffffffffffffffff1673ffffffffffffffffffffffffffffffffffffffff168152602001908152602001600020549050803073ffffffffffffffffffffffffffffffffffffffff1631101515156102c057fe5b6000600160008473ffffffffffffffffffffffffffffffffffffffff1673ffffffffffffffffffffffffffffffffffffffff168152602001908152602001600020819055508173ffffffffffffffffffffffffffffffffffffffff166108fc829081150290604051600060405180830381858888f1935050505015801561034b573d6000803e3d6000fd5b508173ffffffffffffffffffffffffffffffffffffffff167f7084f5476618d8e60b11ef0d7d3f06914655adb8793e28ff7f018d4c76d505d5826040518082815260200191505060405180910390a25050565b6000809054906101000a900473ffffffffffffffffffffffffffffffffffffffff1673ffffffffffffffffffffffffffffffffffffffff163373ffffffffffffffffffffffffffffffffffffffff161415156103f957600080fd5b6000809054906101000a900473ffffffffffffffffffffffffffffffffffffffff1673ffffffffffffffffffffffffffffffffffffffff167ff8df31144d9c2f0f6b59d69b8b98abd5459d07f2742c4df920b25aae33c6482060405160405180910390a260008060006101000a81548173ffffffffffffffffffffffffffffffffffffffff021916908373ffffffffffffffffffffffffffffffffffffffff160217905550565b6000809054906101000a900473ffffffffffffffffffffffffffffffffffffffff1681565b6000600160008373ffffffffffffffffffffffffffffffffffffffff1673ffffffffffffffffffffffffffffffffffffffff168152602001908152602001600020549050919050565b6000809054906101000a900473ffffffffffffffffffffffffffffffffffffffff1673ffffffffffffffffffffffffffffffffffffffff163373ffffffffffffffffffffffffffffffffffffffff1614151561056957600080fd5b610572816106bc565b50565b60008060009054906101000a900473ffffffffffffffffffffffffffffffffffffffff1673ffffffffffffffffffffffffffffffffffffffff163373ffffffffffffffffffffffffffffffffffffffff161415156105d257600080fd5b34905061062781600160008573ffffffffffffffffffffffffffffffffffffffff1673ffffffffffffffffffffffffffffffffffffffff168152602001908152602001600020546107b690919063ffffffff16565b600160008473ffffffffffffffffffffffffffffffffffffffff1673ffffffffffffffffffffffffffffffffffffffff168152602001908152602001600020819055508173ffffffffffffffffffffffffffffffffffffffff167f2da466a7b24304f47e87fa2e1e5a81b9831ce54fec19055ce277ca2f39ba42c4826040518082815260200191505060405180910390a25050565b600073ffffffffffffffffffffffffffffffffffffffff168173ffffffffffffffffffffffffffffffffffffffff16141515156106f857600080fd5b8073ffffffffffffffffffffffffffffffffffffffff166000809054906101000a900473ffffffffffffffffffffffffffffffffffffffff1673ffffffffffffffffffffffffffffffffffffffff167f8be0079c531659141344cd1fd0a4f28419497f9722a3daafe3b4186f6b6457e060405160405180910390a3806000806101000a81548173ffffffffffffffffffffffffffffffffffffffff021916908373ffffffffffffffffffffffffffffffffffffffff16021790555050565b600081830190508281101515156107c957fe5b809050929150505600a165627a7a72305820b84d6c32b4ded8decf9775164fd9e92e0c9b5c4f9b109c3b4b621ed5f0fb550f0029",
  "source": "pragma solidity >=0.4.24;\r\n\r\nimport \"./CircuitBreakerContract.sol\";\r\nimport \"../node_modules/openzeppelin-solidity/contracts/payment/PullPayment.sol\";\r\n\r\ncontract BountyContract is PullPayment, CircuitBreakerContract {\r\n\r\n  address private owner;\r\n\r\n  constructor() public {\r\n    owner = msg.sender;\r\n  }\r\n\r\n  enum BountyStage {\r\n    Open,\r\n    Closed\r\n  }\r\n\r\n  struct Bounty {\r\n    uint32 bountyId;\r\n    address creator;\r\n    string desc;\r\n    uint256 bountyAmt;\r\n    BountyStage bountyStage;\r\n  }\r\n\r\n  mapping (uint32 => Bounty) bounties;\r\n  uint32 numBounties;\r\n\r\n  struct Solution {\r\n    uint32 solutionId;\r\n    address hunter;\r\n    string answer;\r\n    bool accepted;\r\n  }\r\n\r\n  mapping (uint32 => mapping(uint32 => Solution)) solutions;\r\n  mapping (uint32 => uint32) numSolutions;\r\n\r\n  /// CRUD on Bounties ///\r\n\r\n  /** \r\n   * @dev Create a Bounty\r\n   * @param desc The Bounty Problem Description\r\n   * @param bountyAmt The Bounty Reward Amount in Wei\r\n   */\r\n  function createBounty(string desc, uint256 bountyAmt) external \r\n  stopInEmergency amountIsNotZero(bountyAmt) bountiesCountDoesNotOverflow returns (uint32) {\r\n    bounties[numBounties] = Bounty(numBounties, msg.sender, desc, bountyAmt, BountyStage.Open);\r\n    numBounties++;\r\n    return numBounties;\r\n  }\r\n  \r\n  /**\r\n   * @dev Get the Bounty by bountyId \r\n   * @param bountyId index of the bounty\r\n   */\r\n  function getBounty(uint32 bountyId) external view validateBountiesIndex(bountyId) returns (address, string, uint256, uint32) {\r\n    return (bounties[bountyId].creator, bounties[bountyId].desc, bounties[bountyId].bountyAmt, uint32(bounties[bountyId].bountyStage));\r\n  }\r\n\r\n  /**\r\n   * @dev Get the number of bounties created\r\n   */\r\n  function returnBountiesCount() external view returns (uint32) {\r\n    return numBounties;\r\n  }\r\n\r\n  /// CRUD on Solutions ///\r\n\r\n  /**\r\n   * @dev Create a solution for given bounty\r\n   * @param bountyId index of the bounty\r\n   * @param answer the solution proposed for the bounty\r\n   */\r\n  function createSolution(uint32 bountyId, string answer) external stopInEmergency solutionsCountDoesNotOverflow(bountyId) returns (uint32) {\r\n    solutions[bountyId][numSolutions[bountyId]] = Solution(numSolutions[bountyId], msg.sender, answer, false);\r\n    numSolutions[bountyId]++;\r\n    return numSolutions[bountyId];\r\n  }\r\n\r\n  /**\r\n   * @dev Get the solution proposed for a given bounty by index\r\n   * @param bountyId index of the given bounty\r\n   * @param solutionId index of the solution\r\n   */\r\n  function getSolution(uint32 bountyId, uint32 solutionId) external view \r\n  validateSolutionsIndex(bountyId, solutionId) returns (address, string, bool) {\r\n    return (solutions[bountyId][solutionId].hunter, solutions[bountyId][solutionId].answer, solutions[bountyId][solutionId].accepted);\r\n  }\r\n\r\n  /**\r\n   * @dev Get the number of solutions submitted for a given bounty\r\n   * @param bountyId index of the given bounty\r\n   */\r\n  function returnSolutionsCount(uint32 bountyId) external view validateBountiesIndex(bountyId) returns (uint32) {\r\n    return numSolutions[bountyId];\r\n  }\r\n\r\n  \r\n  /**\r\n   * @dev Get the solution to be awarded by index\r\n   * @param bountyId index of the bounty\r\n   * @param solutionId index of the solution\r\n   */\r\n  function getSolutionToBeAwarded(uint32 bountyId, uint32 solutionId) external view validateBountiesIndex(bountyId)\r\n  validateSolutionsIndex(bountyId, solutionId) returns (address, uint256) {\r\n    return(solutions[bountyId][solutionId].hunter, bounties[bountyId].bountyAmt);\r\n  }\r\n\r\n\r\n  /**\r\n   * @dev Perform all the actions to be expected when a solution is accepted\r\n   * @param bountyId index of the bounty\r\n   * @param solutionId index of the solution\r\n   */\r\n  function untrustedAcceptSolution(uint32 bountyId, uint32 solutionId) external payable\r\n  validateBountiesIndex(bountyId) validateSolutionsIndex(bountyId, solutionId) stopInEmergency \r\n  onlyOpenBounty(bountyId) isCreator(bountyId) solutionNotAccepted(bountyId, solutionId) {\r\n    bounties[bountyId].bountyStage = BountyStage.Closed;\r\n    solutions[bountyId][solutionId].accepted = true;\r\n    untrustedCreditTransfer(solutions[bountyId][solutionId].hunter, bounties[bountyId].bountyAmt);\r\n  }\r\n\r\n  ///MODIFIERS///\r\n\r\n  modifier onlyOwner() {\r\n    require(msg.sender == owner, \"Sender is not owner\");\r\n    _;\r\n  }\r\n\r\n  modifier isCreator(uint32 bountyId) {\r\n    require(msg.sender == bounties[bountyId].creator, \"Sender is not Bounty creator\");\r\n    _;\r\n  }\r\n\r\n  modifier solutionNotAccepted(uint32 bountyId, uint32 solutionId) {\r\n    require(solutions[bountyId][solutionId].accepted == false, \"Solution is already accepted\");\r\n    _;\r\n  }\r\n\r\n  modifier onlyOpenBounty(uint32 bountyId) {\r\n    require(bounties[bountyId].bountyStage == BountyStage.Open, \"Bounty is closed\");\r\n    _;\r\n  }\r\n\r\n  modifier amountIsNotZero(uint256 amount) {\r\n    require(amount!=0, \"Amount is zero\");\r\n    _;\r\n  }\r\n\r\n  modifier bountiesCountDoesNotOverflow {\r\n    require((numBounties + 1) > numBounties, \"No. of bounties is more than uint32 can support\");\r\n    _;\r\n  }\r\n\r\n  modifier solutionsCountDoesNotOverflow (uint32 bountyId) {\r\n    require((numSolutions[bountyId] + 1) > numSolutions[bountyId], \"No. of solutions is more than uint32 can support\");\r\n    _;\r\n  }\r\n\r\n  modifier validateBountiesIndex (uint32 bountyId) {\r\n    require(bountyId < numBounties, \"Array index out of bounds\");\r\n    _;\r\n  }\r\n\r\n  modifier validateSolutionsIndex (uint32 bountyId, uint32 solutionId) {\r\n    require(solutionId < numSolutions[bountyId], \"Array index out of bounds\");\r\n    _;\r\n  }\r\n\r\n  modifier withdrawAmtIsNotZero (address bountyHunterAddress) {\r\n    require(untrustedCheckBountyWinnings(bountyHunterAddress)!=0, \"Nothing to withdraw\");\r\n    _;\r\n  }\r\n\r\n\r\n/// Bounty Payment Operations ///\r\n\r\n  /**\r\n   * @dev Credit the bounty Reward to the bounty hunter in an escrow\r\n   * @param dest address of the bounty hunter to be credited\r\n   * @param amount amount of Wei to be credited to the bounty hunter\r\n   */\r\n  function untrustedCreditTransfer(address dest, uint256 amount) public payable stopInEmergency amountIsNotZero(amount) {\r\n    asyncTransfer(dest, amount);\r\n  }\r\n\r\n  /**\r\n   * @dev Withdraw the bounty reward winnings credited from the escrow account\r\n   */\r\n  function untrustedWithdrawBountyReward() external withdrawAmtIsNotZero(msg.sender) {\r\n    withdrawPayments();\r\n  }\r\n\r\n  /**\r\n   * @dev Check the bounty winnings credited in the escrow \r\n   * @param hunterAddress Address of the bounty hunter\r\n   */\r\n  function untrustedCheckBountyWinnings(address hunterAddress) public view returns(uint256) {\r\n    return payments(hunterAddress);\r\n  }\r\n\r\n}\r\n",
  "sourcePath": "C:\\Users\\Shashi\\Bounties\\contracts\\BountyContract.sol",
  "compiler": {
    "name": "solc",
    "version": "0.4.24+commit.e67f0147.Emscripten.clang"
  },
  "schemaVersion": "2.0.1",
  "updatedAt": "2019-01-28T05:48:28.483Z"
}